:100000000C943E000C945B000C94E2010C945B0099
:100010000C945B000C945B000C945B000C945B00F4
:100020000C945B000C945B000C945B000C945B00E4
:100030000C945B000C945B000C945B000C945B00D4
:100040000C945B000C945B000C945B000C945B00C4
:100050000C945B000C945B000C945B000C945B00B4
:100060000C945B000C945B000C945B000C94760287
:100070000C945B000C945B000C945B0011241FBE7D
:10008000CFEFCDBFDFE3DEBF1CE3A0E0BCE3E2E9DE
:10009000F5E002C005900D92AE30B107D9F72CE320
:1000A000AEE0BCE301C01D92AC33B207E1F70E94A1
:1000B000BC020C94C7020C940000E0E0F8E086EB70
:1000C00092E080879187158280EC868383E0878326
:1000D000138614861686158680E09CE38093383C50
:1000E0009093393C089580910408881F8827881FC1
:1000F0000895E0E0F8E0948195FFFDCF8093020839
:1001000008950E94790080E090E00895CF93DF93F6
:100110001F92CDB7DEB7AC0169838AE080930208F5
:100120008981882379F020E0E0E0F8E0948195FF70
:10013000FDCFDA01A20FB11D9C9192832F5F9981AF
:100140002917A0F30F90DF91CF910895FC0164BFB0
:100150004083089540E068ED80E191E00E94A600B0
:10016000E0E1F1E012821382789480E00895E0E10A
:10017000F4E0808188608193E83184E0F807C9F772
:10018000E0E3F4E0808188608193E83384E0F8075D
:10019000C9F7E0E5F4E0808188608193E83584E088
:1001A000F807C9F70895CF93DF930E94B700C0E026
:1001B000D4E01882A0E2B4E085E08C93E0E4F4E0BF
:1001C00010821C8284E014968C9314971482188AEF
:1001D000198A1A8A1B8A1C8A1D8A1E8A1F8A5096AF
:1001E0001C92509751961C92519752961C9252977E
:1001F00053961C92539754961C92549755961C9262
:10020000559756961C92569757961C92108A118AAB
:10021000128A138A148A158A168A178AE0E0F2E095
:100220001082118212821382DF91CF910895FC0116
:1002300080850895CF93DF931F92CDB7DEB7FC0181
:100240006983208530E02F5F3F4F2770307833235C
:1002500034F421503109286F3F6F2F5F3F4F818564
:10026000821749F090858981DF01A90FB11D8C9318
:10027000208780E001C082E00F90DF91CF91089548
:100280000F931F93CF93DF931F92CDB7DEB7FC017F
:1002900069838A01D9011C9290858185981324C0B5
:1002A00029C0B8016F5F7F4F8185AF01480F511D95
:1002B000DA018C91D8018C93418550E04F5F5F4FFC
:1002C00047705078552334F441505109486F5F6F9F
:1002D0004F5F5F4F4187D9018C918F5F8C939085E1
:1002E0008185981749F08B01918589819813D9CF21
:1002F00080E003C081E001C081E00F90DF91CF91E9
:100300001F910F910895FC01908581859817C1F088
:100310008185DF01A80FB11D8C91DB018C932185B4
:1003200030E02F5F3F4F27703078332334F4215073
:100330003109286F3F6F2F5F3F4F218780E008957D
:1003400081E00895FC014085208530E0295F3F4F22
:1003500027703078332334F421503109286F3F6FF0
:100360002F5F3F4F818550E04F5F5F4F4770507860
:10037000552334F441505109486F5F6F4F5F5F4F11
:10038000841307C0E20FF11D8081FB01808382E0AE
:10039000089590858185981739F0E20FF11D8081CD
:1003A000FB01808380E0089581E0089540E068EDDE
:1003B00080E890E00E94A600E0E8F0E01186108658
:1003C00080E008951F920F920FB60F9211248F9321
:1003D00081E080938A008F910F900FBE0F901F9045
:1003E000189540E068ED88E790E00E94A60040E0A4
:1003F00068ED80E790E00E94A60040E068ED81E6AD
:1004000090E00E94A60040E068ED80E690E00E9447
:10041000A60040E068ED82E690E00E94A60080E041
:10042000089540E068ED80E590E00E94A60080E03D
:1004300008950E94D3000E94D6010E9411020E94DA
:10044000F1010E94AA000E945D000895CF93DF93FE
:1004500000D000D0CDB7DEB769837A834B835C834D
:100460002B813C81232B79F020E030E0FC01E20F6E
:10047000F31F49815A8140832F5F3F4F4B815C813D
:100480002417350798F32496CDBFDEBFDF91CF91B7
:1004900008956FE07CE380E29CE30E94A2018093D8
:1004A000343C813011F16FE07CE380E29CE30E94F8
:1004B00083018093343C60910F3C2EE03CE340E1AB
:1004C0005CE38AE29CE30E9440018093353C6091AA
:1004D0000E3C80E19CE30E94860040E150E060E039
:1004E00070E080E19CE30E94260208951F920F9223
:1004F0000FB60F9211242F933F934F935F936F93F7
:100500007F938F939F93AF93BF93EF93FF93F89451
:100510000E9473008823F1F0609100086B33A1F40E
:100520008091353C823021F48091343C813091F4CB
:100530008AE29CE30E941701682F80E29CE30E94FC
:100540001A018093343C06C08AE29CE30E941A019F
:100550008093353C7894FF91EF91BF91AF919F913B
:100560008F917F916F915F914F913F912F910F905C
:100570000FBE0F901F9018950E941902E0E0F8E05E
:1005800085818068858378940E944902FDCFF89424
:02059000FFCF9B
:0E0592000000000200000000810000000000D8
:02000004008278
:090000000000020000C40700002A
:00000001FF
